:020000040000FA
:02000000A12835
:040002000034003492
:08000800A000030EA100040E8C
:10001000A2000B1D29280B1100302A0203191828F1
:1000200001302A0203191E2802302A02031925284A
:100030000714280881018102AA0A292807108715B8
:10004000290881018102AA0A292807108711810144
:10005000AA010C1F4A280C13003026020319392864
:100060000130260203193E280230260203194328D4
:10007000A6011E08A3009F111F1548281E08A400F2
:100080009F151F1148281E08A5009F111F11482801
:10009000A60A9F14210E8300220E8400A00E200EBB
:1000A00009000C1E080000302B02031987280130BC
:1000B0002B020319892802302B0203198B280330E5
:1000C0002B020319992804302B0203198D280530BF
:1000D0002B0203198F2806302B02031991280730B1
:1000E0002B020319992808302B0203199328093091
:1000F0002B02031995280A302B02031997280B307D
:100100002B0203199B280C302B020319AB012C087E
:100110009D282D089D282E089D282F089D283008F1
:100120009D2831089D2832089D2833089D283408D1
:100130009D282C309E280A309E28303E9900AB0A1C
:020140000800B5
:0E014200E920352123308400E42027089500B1
:1001500024308400E420A7089B0025308400E4209C
:100160002708A8002308B5002C308400C3202408E9
:10017000B5002F308400C3202508B500323084003C
:10018000C3205120A228B601B701B801643035025E
:10019000031CCD28B60AB500C6280A303502031C58
:1001A000D428B70AB500CD2801303502031CDB285E
:1001B000B80AB500D42836088000840A37088000C1
:1001C000840A3808800008000310000C1F3EA700B6
:1001D00008008313A301A401A501A601AA01AB0194
:1001E000831603170F3088008901811281110111D4
:1001F0008114011483160313FF30850087018801E1
:100200008B170B170C178C16FF3092009F011813D9
:100210009816181218151930990083129817181388
:1002200018160B1181018B168312031397131713E2
:10023000971217129715171597101710831203139B
:100240009D131D139D121D129D151D159D109D10B2
:100250001D101213921212129211121192141214F2
:10026000121541309F009F140800FF30B900B90BF0
:040270003729080022
:02400E00D420BC
:02401000FF3F70
:00000001FF
