:020000040000FA
:020000004D2889
:040002000034003492
:08000800A000030EA1000B1D76
:1000100025280B1100302302031916280130230272
:1000200003191C280230230203192228071425086B
:1000300081018102A30A2528071026088101810277
:10004000A30A252807108101A3010C1F47280C13C0
:1000500000302202031934280130220203193A2801
:1000600002302202031940281E08A7009F111F1505
:10007000A20A46281E08A8009F151F11A20A46289A
:100080001E08A9009F111F11A20146289F14210ECE
:0A0090008300A00E200E8B1709005C
:06009A00662027308400FF
:1000A0005F2024089500283084005F2024089B00EE
:1000B000293084005F202408A5004E285E28831381
:1000C0000310000C1F3EA40083170800831783163B
:1000D00003170F30880089018112811101118114E9
:1000E00001140313FF3085008701FF3092009F0148
:1000F000831203130B1181018B16831203139713C1
:1001000017139712171297151715971017109D139D
:100110001D139D121D129D151D159D101D101213EE
:1001200092121212921192141214121541309F0061
:10013000A701A801A901A201A3018B170B170C1796
:040140009F14080000
:02400E00D420BC
:02401000FF3F70
:00000001FF
