:020000040000FA
:020000002728AF
:040002000034003492
:08000800A100030EA0000C137F
:10001000831203131E081F1912289500831203135D
:100020001F1519289B00831203131F1119288C1008
:1000300021280000000000000000000083120313CC
:0E0040009F14200E8300A10E210E8B170900C5
:02004E002A2066
:100050002828292883120313870185018601831626
:1000600003138601870105148514831603130030DA
:100070009F0083160317081488148312031341305A
:100080009F00831603130C178C14831203138B1712
:100090000B170C138C10BB309200831203139713B1
:1000A00017139715171597101710831203139D1523
:1000B0001D159D101D1012139212121292119214FE
:0600C000121412150800E5
:02400E00D420BC
:02401000FF3F70
:00000001FF
