:020000040000FA
:020000003528A1
:040002000034003492
:08000800A100030EA0000C137F
:10001000831203131E08003022020319172801302F
:10002000220203191C2802302202031921289500FC
:100030009F111F15A20A27289F151F119B00A20AB6
:1000400027289F111F11A20127288C102F2800009C
:100050000000000000000000831203139F14200E14
:0A0060008300A10E210E8B1709008A
:06006A003820362837287B
:10007000831203138701850186018316031386010A
:100080008701051485148316031300309F0083161F
:100090000317081488148312031341309F0083163A
:1000A00003130C178C14831203138B170B170C13E9
:1000B0008C10FF30920083120313971317139715B8
:1000C000171597101710831203139D151D159D10FA
:1000D0001D10121392121212921192141214121570
:0200E000080016
:02400E00D420BC
:02401000FF3F70
:00000001FF
