:020000040000FA
:020000003C289A
:040002000034003492
:08000800A100030EA0000B1D76
:100010001B280B11230882070F281528A30107149A
:100020002B0881018102A30A1B2807102C088101DB
:100030008102A30A1B280C1F3628831203130C13FA
:100040002708820726282B283028A7011E08A4008D
:100050009F111F1534281E08A5009F151F11342855
:100060001E08A6009F111F11A70A9F14200E8300CF
:08007000A10E210E8B170900FF
:0800780045202408950025082D
:100080009B002608AB003D284428831203138701F8
:1000900085018601A301A401A501A601A701A8016C
:1000A000831603138601870105148514051583162D
:1000B00003139F0183160317081488140815890178
:1000C0008312031341309F00831603130C1783120E
:1000D00003130C13FF3092008312031397131713AB
:1000E0009715171597101710831203139D151D15DB
:1000F0009D101D10121392121212921112159214C9
:10010000121083160313811281110111811401143D
:100110008312031381018B160B1108008312031342
:040120008B170B1717
:02400E00D420BC
:02401000FF3F70
:00000001FF
