:020000040000FA
:020000004F2887
:040002000034003492
:08000800A100030EA0000C1B77
:1000100017280B190E288C183F2849280B11ED3092
:100020008100A20A22082302031C070949280C1395
:1000300000302402031924280130240203192C283B
:100040000230240203193528831203131E08950079
:10005000831203131F154128831203131E089B00EC
:10006000831203131F119F154128A4018312031348
:100070001E08A300831203131F119F1141288C1027
:100080004928000000000000000000008312031354
:0E0090009F14200E8300A10E210E8B17090075
:02009E005220EE
:1000A0005028512883120313870185018601A4017A
:1000B000A301831603138601870105148514051512
:1000C0008316031300309F00831603170814881447
:1000D00008158312031341309F00831603130C1776
:1000E0008C14831203138B170B170C138C10BB305B
:1000F0009200831203139713171397151715971070
:100100001710831203139D151D159D101D1012133A
:1001100092121212921192141214121583160313D2
:100120008112811101158114011483120313ED3022
:0801300081008B160B11080081
:02400E00D420BC
:02401000FF3F70
:00000001FF
